:08000000803102288731FC2F3A
:100E980016302100970008002000110E890C013936
:100EA80008007708F1007608F00008007708F500D8
:100EB8007608F40008007708F3007608F2000800C6
:100EC8003830210099009A01980124009D010800FA
:100ED800F6002000111E712F722F6D2F7608230047
:100EE8009A0008008731CB278731873164278731FB
:100EF80087314C2787318731AA278731080020009E
:100F0800911E872F882F832FFA0123009D1C8D2F78
:100F18008E2F902F1D121D1619080800873176276D
:100F28008731873150278731003A03199C2F9D2F2D
:100F3800952F873183278731F8007808F9007908D9
:100F480087316C278731952F80310228083023009C
:100F58009F0090309D0024309E000C309B009C0127
:100F68000030F6000030F70087315A27873100300B
:100F7800F6000030F70087315F2787310030F60030
:100F88000030F700873155278731FA010800220021
:100F98008C018D018E01073021008C0020308D00DE
:100FA80001308E00CF3023008E00C0308D00173006
:100FB8008C0024008D018C018E01210095172500DD
:100FC8008C018D018E01373026008C00F0308D00A9
:100FD800FF308E003F3027008C00F0308D00FF304E
:100FE8008E000D303C00A40016303D009C00080027
:080FF800FA0120008731922F5D
:020000040001F9
:04000E00E43FFF3E8E
:00000001FF
