:08000000803102288731FB2F3B
:10041200163021009700080071082000D2007008F1
:10042200D100080071082000D6007008D50008002D
:1004320071082000D4007008D300080082312E22F7
:10044200823122000C128E120800383021009900ED
:100452009A01980124009D01080022008C160C16B6
:100462008E160E168E150E178E17080082312E224A
:10047200823122000E138E130C128E12080082316A
:100482002E22823122000E138C120C128E120800C0
:1004920082312E22823122008C120E138E138E1282
:1004A2000E12080082312E22823122008C120C128E
:1004B2008E130E138E12080082312E2282312200F8
:1004C2008C120C128E138E120E12080082312E2202
:1004D200823122008C120C128E138E110E12080021
:1004E20082312E22823122008C120E138E138E1232
:1004F2000E128E11080082312E22823122008C12BD
:100502000C128E120E128E110E13080082312E2240
:10051200823122008C120C128E120E128E110E13C8
:100522008E130800833107238231823126228231E1
:100532008231092282318231C02282310800823125
:100542009322823161302000A2001E30A300843148
:1005520081248231A32A80310228B32A2930890BCF
:10056200B02A00320130F0020030F13B700A031D64
:10057200BE2A710A031DBE2ABF2AAF2A080008300C
:1005820023009F0090309D0024309E000C309B0081
:100592009C010030F0000030F100823113228231E0
:1005A2000030F0000030F100823119228231003037
:1005B200F0000030F10082310D2282312000D7019B
:1005C200080082312E22823122008D170D170E155E
:1005D2008E14F32A8D13062B0D13062B0E11062BE8
:1005E2008E10062B7108003A0319F82A062B7008A0
:1005F200013A0319EB2A033A0319ED2A013A0319C6
:10060200EF2A073A0319F12A062B080022008C016F
:100612008D018E01073021008C0020308D000130C9
:100622008E00CF3023008E00C0308D0017308C003A
:1006320024008D018C018E012100951725008C016B
:100642008D018E01373026008C00F0308D00FF3096
:100652008E003F3027008C00F0308D00FF308E007E
:100662000D303C00A40016303D009C000800823191
:100672002E228331542B22008C120C126D2B22005D
:100682000C128E126D2B22008E120E126D2B220076
:100692000E128E116D2B22008E110E136D2B220065
:1006A2000E138C126D2B7308003A0319592B742BFD
:1006B2007208013A03193C2B033A0319402B013A01
:1006C2000319442B073A0319482B013A03194C2BFF
:1006D200033A0319502B742B0130F0000030F10063
:1006E2008231AE22833108002000A101FC1F7A2B47
:1006F2007B2B822BFB09FC09FB0A0319FC0AA101D3
:10070200A10AFA1F852B862B8B2BF909FA09F90A04
:100712000319FA0A79087A040319902B912BBA2B40
:10072200A001A00A9D2B0130F935FA0D890B952BFA
:100732000130FD007D08A007FA1FA02BA12B942BEE
:100742007A087C02031DA72B79087B02031CAA2BC3
:10075200AB2BAF2B7908FB027A08FC3B0130FA364F
:10076200F90C890BB02B0130A002031DB92BBA2B57
:10077200A12B21080319BE2BBF2BC42BFB09FC099B
:10078200FB0A0319FC0A7C08FA007B08F90008003E
:1007920082312E228331F52B82317C2283311A2C35
:1007A20082311F2283311A2C8231672283311A2C23
:1007B20082315D2283311A2C8231372283311A2C05
:1007C2008231492283311A2C8231712283311A2CCF
:1007D2008231402283311A2C8231872283311A2CB2
:1007E2008231532283311A2C7308003A0319FA2BEF
:1007F200212C7208003A0319CD2B013A0319D12B8F
:10080200033A0319D52B013A0319D92B073A0319D5
:10081200DD2B013A0319E12B033A0319E52B013AC7
:100822000319E92B0F3A0319ED2B013A0319F12BA6
:10083200212C0130F0000030F1008231AE228331F0
:100842000800F601F11F262C272C2E2CF009F109A5
:10085200F00A0319F10AF601F60AF31F312C322CC1
:100862003B2CF209F309F20A0319F30A0130F400EE
:100872007408F606F701F801700871040319422C96
:10088200432C722CF501F50A4F2C0130F035F10D95
:10089200890B472C0130F4007408F507F11F522C24
:1008A200532C462C0130F735F80D890B542C710866
:1008B2007302031D5E2C70087202031C612C622CF1
:1008C200672C7008F2027108F33B77140130F1369D
:1008D200F00C890B682C0130F502031D712C722C6F
:1008E200532C76080319762C772C7C2CF709F809FF
:1008F200F70A0319F80A7808F1007708F0000800EF
:10090200E830F0000330F10020002308F300220851
:10091200F20084312224843171082000C80070085A
:10092200C7000A30F9000030FA006430F0000030ED
:10093200F1002308F3002208F200843122248431DA
:100942007108FC007008FB008331752384317A083A
:100952002000BC007908BB000A30F9000030FA0020
:100962000A30F0000030F1002308F3002208F20000
:100972008431222484317108FC007008FB00833129
:10098200752384317A082000A8007908A7000A306C
:10099200F9000030FA002308FC002208FB00833132
:1009A200752384317A082000A6007908A500A901E0
:1009B200AA0101302000BD000030BE002000AB01C2
:1009C200AC0101302000BF000030C0002000400810
:1009D200F1003F08F0008231E222843120003E081B
:1009E200F3003D08F20083313823843101302000C6
:1009F200BF070030C03D4008803AA4008030240286
:100A0200031D052D05303F02031C082D092DE72C7F
:100A120001302000AB070030AC3D2C08803AA40026
:100A220080302402031D172D0A302B02031C1A2DBD
:100A32001B2DE22C01302000BD070030BE3D3E08D8
:100A4200803AA40080302402031D292D07303D0284
:100A5200031C2C2D2D2DDF2C01302000A907003086
:100A6200AA3D2A08803AA40080302402031D3B2DAF
:100A720003302902031C3E2D3F2DDA2C2000AD014C
:100A8200AE012E08803AA40080302402031D4B2DB3
:100A920001302D02031C4E2D4F2D502DED2D013016
:100AA2002000C1000030C2004208803AA400803019
:100AB2002402031D5E2D07304102031C612D622DAD
:100AC200632DDB2D2000AF01B0013008803AA40075
:100AD20080302402031D6F2D0A302F02031C722D59
:100AE200732D742DC92D01302000C9000030CA00B9
:100AF2004A08803AA40080302402031D822D05306A
:100B02004902031C852D862D872DB72D20004A080A
:100B1200F1004908F0008231E222843120004903C9
:100B22004A04031D952D962D9E2D4808F300470873
:100B3200F2008331C9238431A52D4208F300410814
:100B4200F20083313823843101302000C90700309C
:100B5200CA3D4A08803AA40080302402031DB32D06
:100B620005304902031CB62DB72D872D0130200018
:100B7200AF070030B03D3008803AA4008030240234
:100B8200031DC52D0A302F02031CC82DC92D742D3B
:100B920001302000C1070030C23D4208803AA40063
:100BA20080302402031DD72D07304102031CDA2DA9
:100BB200DB2D632D01302000AD070030AE3D2E0845
:100BC200803AA40080302402031DE92D01302D0259
:100BD200031CEC2DED2D502D2000B101B201320885
:100BE200803AA40080302402031DF92D0130310225
:100BF200031CFC2DFD2DFE2DAA2E01302000C3006A
:100C02000030C4004408803AA40080302402031D4E
:100C12000C2E07304302031C0F2E102E112E982E7D
:100C22002000B301B4013408803AA40080302402C9
:100C3200031D1D2E0A303302031C202E212E222ECC
:100C4200862E01302000CB000030CC004C08803AC8
:100C5200A40080302402031D302E05304B02031CF9
:100C6200332E342E352E742E20004C08F1004B0802
:100C7200F0008231E222843120004B034C04031D38
:100C8200432E442E4C2E4808F3004708F2008331CD
:100C9200C9238431622E02304B064C04031D522EAE
:100CA200532E5B2E3C08F3003B08F2008331C9232C
:100CB2008431622E4408F3004308F2008331382362
:100CC200843101302000CB070030CC3D4C08803A03
:100CD200A40080302402031D702E05304B02031C39
:100CE200732E742E352E01302000B3070030B43D30
:100CF2003408803AA40080302402031D822E0A3078
:100D02003302031C852E862E222E01302000C307BB
:100D12000030C43D4408803AA40080302402031D00
:100D2200942E07304302031C972E982E112E013069
:100D32002000B1070030B23D3208803AA400803072
:100D42002402031DA62E01303102031CA92EAA2E55
:100D5200FE2D2000B501B6013608803AA40080308D
:100D62002402031DB62E01303502031CB92EBA2E01
:100D7200BB2E762F01302000C5000030C600460889
:100D8200803AA40080302402031DC92E0730450298
:100D9200031CCC2ECD2ECE2E642F2000B701B8011D
:100DA2003808803AA40080302402031DDA2E0A306B
:100DB2003702031CDD2EDE2EDF2E522F01302000E3
:100DC200CD000030CE004E08803AA40080302402CC
:100DD200031DED2E05304D02031CF02EF12EF22ED6
:100DE200402F20004E08F1004D08F0008231E2222F
:100DF200843120004D034E04031D002F012F092FC3
:100E02004808F3004708F2008331C92384312E2FAA
:100E120002304D064E04031D0F2F102F182F3C08D1
:100E2200F3003B08F2008331C92384312E2F0330B3
:100E32004D064E04031D1E2F1F2F272F2808F300D7
:100E42002708F2008331C92384312E2F4608F3008C
:100E52004508F20083313823843101302000CD0768
:100E62000030CE3D4E08803AA40080302402031D9B
:100E72003C2F05304D02031C3F2F402FF22E013034
:100E82002000B7070030B83D3808803AA40080300F
:100E92002402031D4E2F0A303702031C512F522FFA
:100EA200DF2E01302000C5070030C63D4608803ADB
:100EB200A40080302402031D602F07304502031C6A
:100EC200632F642FCE2E01302000B5070030B63DCF
:100ED2003608803AA40080302402031D722F0130AC
:100EE2003502031C752F762FBB2E2000B901BA01E3
:100EF2003A08803AA40083302402031D822FE8308E
:100F02003902031C852F862F872FFA2F01302000EC
:100F1200CF000030D0005008803AA4008030240274
:100F2200031D952F05304F02031C982F992F9A2FDE
:100F3200E82F20005008F1004F08F0008231E22231
:100F4200843120004F035004031DA82FA92FB12F75
:100F52004808F3004708F2008331C9238431D62FB1
:100F620002304F065004031DB72FB82FC02F3C0884
:100F7200F3003B08F2008331C9238431D62F0330BA
:100F82004F065004031DC62FC72FCF2F2808F3008A
:100F92002708F2008331C9238431D62F2608F300B3
:100FA2002508F2008331C923843101302000CF07A4
:100FB2000030D03D5008803AA40080302402031D46
:100FC200E42F05304F02031CE72FE82F9A2F013040
:100FD2002000B9070030BA3D3A08803AA4008330B5
:100FE2002402031DF62FE8303902031CF92FFA2FD1
:0E0FF200872F08002000D70120008231A02A9E
:020000040001F9
:04000E00E43FFF3E8E
:00000001FF
